{
  "_format": "hh-sol-artifact-1",
  "contractName": "DPay",
  "sourceName": "contracts/DPay.sol",
  "abi": [
    {
      "inputs": [],
      "stateMutability": "nonpayable",
      "type": "constructor"
    },
    {
      "anonymous": false,
      "inputs": [
        {
          "indexed": true,
          "internalType": "address",
          "name": "from",
          "type": "address"
        },
        {
          "indexed": false,
          "internalType": "uint256",
          "name": "amount",
          "type": "uint256"
        },
        {
          "indexed": false,
          "internalType": "uint256",
          "name": "timestamp",
          "type": "uint256"
        }
      ],
      "name": "Deposit",
      "type": "event"
    },
    {
      "anonymous": false,
      "inputs": [
        {
          "indexed": true,
          "internalType": "address",
          "name": "to",
          "type": "address"
        },
        {
          "indexed": false,
          "internalType": "uint256",
          "name": "amount",
          "type": "uint256"
        },
        {
          "indexed": false,
          "internalType": "uint256",
          "name": "timestamp",
          "type": "uint256"
        }
      ],
      "name": "Transfer",
      "type": "event"
    },
    {
      "anonymous": false,
      "inputs": [
        {
          "indexed": true,
          "internalType": "address",
          "name": "to",
          "type": "address"
        },
        {
          "indexed": false,
          "internalType": "uint256",
          "name": "amount",
          "type": "uint256"
        },
        {
          "indexed": false,
          "internalType": "uint256",
          "name": "timestamp",
          "type": "uint256"
        }
      ],
      "name": "Withdraw",
      "type": "event"
    },
    {
      "inputs": [],
      "name": "deposit",
      "outputs": [],
      "stateMutability": "payable",
      "type": "function"
    },
    {
      "inputs": [],
      "name": "getBalance",
      "outputs": [
        {
          "internalType": "uint256",
          "name": "",
          "type": "uint256"
        }
      ],
      "stateMutability": "view",
      "type": "function"
    },
    {
      "inputs": [],
      "name": "owner",
      "outputs": [
        {
          "internalType": "address",
          "name": "",
          "type": "address"
        }
      ],
      "stateMutability": "view",
      "type": "function"
    },
    {
      "inputs": [
        {
          "internalType": "address",
          "name": "_to",
          "type": "address"
        },
        {
          "internalType": "uint256",
          "name": "_amount",
          "type": "uint256"
        }
      ],
      "name": "transfer",
      "outputs": [],
      "stateMutability": "nonpayable",
      "type": "function"
    },
    {
      "inputs": [
        {
          "internalType": "uint256",
          "name": "_amount",
          "type": "uint256"
        }
      ],
      "name": "withdraw",
      "outputs": [],
      "stateMutability": "nonpayable",
      "type": "function"
    },
    {
      "stateMutability": "payable",
      "type": "receive"
    }
  ],
  "bytecode": "0x608060405234801561001057600080fd5b50336000806101000a81548173ffffffffffffffffffffffffffffffffffffffff021916908373ffffffffffffffffffffffffffffffffffffffff160217905550610821806100606000396000f3fe60806040526004361061004e5760003560e01c806312065fe0146100aa5780632e1a7d4d146100d55780638da5cb5b146100fe578063a9059cbb14610129578063d0e30db014610152576100a5565b366100a5573373ffffffffffffffffffffffffffffffffffffffff167f90890809c654f11d6e72a28fa60149770a0d11ec6c92319d6ceb2bb0a4ea1a15344260405161009b929190610598565b60405180910390a2005b600080fd5b3480156100b657600080fd5b506100bf61015c565b6040516100cc91906105c1565b60405180910390f35b3480156100e157600080fd5b506100fc60048036038101906100f7919061060d565b610164565b005b34801561010a57600080fd5b5061011361030f565b604051610120919061067b565b60405180910390f35b34801561013557600080fd5b50610150600480360381019061014b91906106c2565b610333565b005b61015a61049f565b005b600047905090565b60008054906101000a900473ffffffffffffffffffffffffffffffffffffffff1673ffffffffffffffffffffffffffffffffffffffff163373ffffffffffffffffffffffffffffffffffffffff16146101f2576040517f08c379a00000000000000000000000000000000000000000000000000000000081526004016101e99061075f565b60405180910390fd5b80471015610235576040517f08c379a000000000000000000000000000000000000000000000000000000000815260040161022c906107cb565b60405180910390fd5b60008054906101000a900473ffffffffffffffffffffffffffffffffffffffff1673ffffffffffffffffffffffffffffffffffffffff166108fc829081150290604051600060405180830381858888f1935050505015801561029b573d6000803e3d6000fd5b5060008054906101000a900473ffffffffffffffffffffffffffffffffffffffff1673ffffffffffffffffffffffffffffffffffffffff167ff279e6a1f5e320cca91135676d9cb6e44ca8a08c0b88342bcdb1144f6511b5688242604051610304929190610598565b60405180910390a250565b60008054906101000a900473ffffffffffffffffffffffffffffffffffffffff1681565b60008054906101000a900473ffffffffffffffffffffffffffffffffffffffff1673ffffffffffffffffffffffffffffffffffffffff163373ffffffffffffffffffffffffffffffffffffffff16146103c1576040517f08c379a00000000000000000000000000000000000000000000000000000000081526004016103b89061075f565b60405180910390fd5b80471015610404576040517f08c379a00000000000000000000000000000000000000000000000000000000081526004016103fb906107cb565b60405180910390fd5b8173ffffffffffffffffffffffffffffffffffffffff166108fc829081150290604051600060405180830381858888f1935050505015801561044a573d6000803e3d6000fd5b508173ffffffffffffffffffffffffffffffffffffffff167f7fa9aafeb8bb803d77de5d84bc2f2edbd842ca91b20cd5020aa21dfe26ab0be98242604051610493929190610598565b60405180910390a25050565b60008054906101000a900473ffffffffffffffffffffffffffffffffffffffff1673ffffffffffffffffffffffffffffffffffffffff163373ffffffffffffffffffffffffffffffffffffffff161461052d576040517f08c379a00000000000000000000000000000000000000000000000000000000081526004016105249061075f565b60405180910390fd5b3373ffffffffffffffffffffffffffffffffffffffff167f90890809c654f11d6e72a28fa60149770a0d11ec6c92319d6ceb2bb0a4ea1a153442604051610575929190610598565b60405180910390a2565b6000819050919050565b6105928161057f565b82525050565b60006040820190506105ad6000830185610589565b6105ba6020830184610589565b9392505050565b60006020820190506105d66000830184610589565b92915050565b600080fd5b6105ea8161057f565b81146105f557600080fd5b50565b600081359050610607816105e1565b92915050565b600060208284031215610623576106226105dc565b5b6000610631848285016105f8565b91505092915050565b600073ffffffffffffffffffffffffffffffffffffffff82169050919050565b60006106658261063a565b9050919050565b6106758161065a565b82525050565b6000602082019050610690600083018461066c565b92915050565b61069f8161065a565b81146106aa57600080fd5b50565b6000813590506106bc81610696565b92915050565b600080604083850312156106d9576106d86105dc565b5b60006106e7858286016106ad565b92505060206106f8858286016105f8565b9150509250929050565b600082825260208201905092915050565b7f4e6f7420617574686f72697a6564000000000000000000000000000000000000600082015250565b6000610749600e83610702565b915061075482610713565b602082019050919050565b600060208201905081810360008301526107788161073c565b9050919050565b7f496e73756666696369656e742062616c616e6365000000000000000000000000600082015250565b60006107b5601483610702565b91506107c08261077f565b602082019050919050565b600060208201905081810360008301526107e4816107a8565b905091905056fea26469706673582212200c39933ac91ac809ebea54ea7ca7a6a535833c5a11722739d7b7dd43233a1aa964736f6c63430008140033",
  "linkReferences": {},
  "deployedLinkReferences": {}
}